{
  "contractName": "nftWithRoyalties",
  "abi": [
    {
      "inputs": [],
      "stateMutability": "nonpayable",
      "type": "constructor"
    },
    {
      "anonymous": false,
      "inputs": [
        {
          "indexed": true,
          "internalType": "address",
          "name": "owner",
          "type": "address"
        },
        {
          "indexed": true,
          "internalType": "address",
          "name": "approved",
          "type": "address"
        },
        {
          "indexed": true,
          "internalType": "uint256",
          "name": "tokenId",
          "type": "uint256"
        }
      ],
      "name": "Approval",
      "type": "event"
    },
    {
      "anonymous": false,
      "inputs": [
        {
          "indexed": true,
          "internalType": "address",
          "name": "owner",
          "type": "address"
        },
        {
          "indexed": true,
          "internalType": "address",
          "name": "operator",
          "type": "address"
        },
        {
          "indexed": false,
          "internalType": "bool",
          "name": "approved",
          "type": "bool"
        }
      ],
      "name": "ApprovalForAll",
      "type": "event"
    },
    {
      "anonymous": false,
      "inputs": [
        {
          "indexed": true,
          "internalType": "address",
          "name": "previousOwner",
          "type": "address"
        },
        {
          "indexed": true,
          "internalType": "address",
          "name": "newOwner",
          "type": "address"
        }
      ],
      "name": "OwnershipTransferred",
      "type": "event"
    },
    {
      "anonymous": false,
      "inputs": [
        {
          "indexed": true,
          "internalType": "bytes32",
          "name": "role",
          "type": "bytes32"
        },
        {
          "indexed": true,
          "internalType": "bytes32",
          "name": "previousAdminRole",
          "type": "bytes32"
        },
        {
          "indexed": true,
          "internalType": "bytes32",
          "name": "newAdminRole",
          "type": "bytes32"
        }
      ],
      "name": "RoleAdminChanged",
      "type": "event"
    },
    {
      "anonymous": false,
      "inputs": [
        {
          "indexed": true,
          "internalType": "bytes32",
          "name": "role",
          "type": "bytes32"
        },
        {
          "indexed": true,
          "internalType": "address",
          "name": "account",
          "type": "address"
        },
        {
          "indexed": true,
          "internalType": "address",
          "name": "sender",
          "type": "address"
        }
      ],
      "name": "RoleGranted",
      "type": "event"
    },
    {
      "anonymous": false,
      "inputs": [
        {
          "indexed": true,
          "internalType": "bytes32",
          "name": "role",
          "type": "bytes32"
        },
        {
          "indexed": true,
          "internalType": "address",
          "name": "account",
          "type": "address"
        },
        {
          "indexed": true,
          "internalType": "address",
          "name": "sender",
          "type": "address"
        }
      ],
      "name": "RoleRevoked",
      "type": "event"
    },
    {
      "anonymous": false,
      "inputs": [
        {
          "indexed": true,
          "internalType": "address",
          "name": "from",
          "type": "address"
        },
        {
          "indexed": true,
          "internalType": "address",
          "name": "to",
          "type": "address"
        },
        {
          "indexed": true,
          "internalType": "uint256",
          "name": "tokenId",
          "type": "uint256"
        }
      ],
      "name": "Transfer",
      "type": "event"
    },
    {
      "inputs": [],
      "name": "DEFAULT_ADMIN_ROLE",
      "outputs": [
        {
          "internalType": "bytes32",
          "name": "",
          "type": "bytes32"
        }
      ],
      "stateMutability": "view",
      "type": "function",
      "constant": true
    },
    {
      "inputs": [],
      "name": "MINTER_ROLE",
      "outputs": [
        {
          "internalType": "bytes32",
          "name": "",
          "type": "bytes32"
        }
      ],
      "stateMutability": "view",
      "type": "function",
      "constant": true
    },
    {
      "inputs": [
        {
          "internalType": "address",
          "name": "to",
          "type": "address"
        },
        {
          "internalType": "uint256",
          "name": "tokenId",
          "type": "uint256"
        }
      ],
      "name": "approve",
      "outputs": [],
      "stateMutability": "nonpayable",
      "type": "function"
    },
    {
      "inputs": [
        {
          "internalType": "address",
          "name": "owner",
          "type": "address"
        }
      ],
      "name": "balanceOf",
      "outputs": [
        {
          "internalType": "uint256",
          "name": "",
          "type": "uint256"
        }
      ],
      "stateMutability": "view",
      "type": "function",
      "constant": true
    },
    {
      "inputs": [],
      "name": "baseExtension",
      "outputs": [
        {
          "internalType": "string",
          "name": "",
          "type": "string"
        }
      ],
      "stateMutability": "view",
      "type": "function",
      "constant": true
    },
    {
      "inputs": [],
      "name": "baseURI",
      "outputs": [
        {
          "internalType": "string",
          "name": "",
          "type": "string"
        }
      ],
      "stateMutability": "view",
      "type": "function",
      "constant": true
    },
    {
      "inputs": [],
      "name": "category1Cost",
      "outputs": [
        {
          "internalType": "uint256",
          "name": "",
          "type": "uint256"
        }
      ],
      "stateMutability": "view",
      "type": "function",
      "constant": true
    },
    {
      "inputs": [],
      "name": "category1Supply",
      "outputs": [
        {
          "internalType": "uint256",
          "name": "",
          "type": "uint256"
        }
      ],
      "stateMutability": "view",
      "type": "function",
      "constant": true
    },
    {
      "inputs": [],
      "name": "category2Cost",
      "outputs": [
        {
          "internalType": "uint256",
          "name": "",
          "type": "uint256"
        }
      ],
      "stateMutability": "view",
      "type": "function",
      "constant": true
    },
    {
      "inputs": [],
      "name": "category2Supply",
      "outputs": [
        {
          "internalType": "uint256",
          "name": "",
          "type": "uint256"
        }
      ],
      "stateMutability": "view",
      "type": "function",
      "constant": true
    },
    {
      "inputs": [
        {
          "internalType": "uint256",
          "name": "tokenId",
          "type": "uint256"
        }
      ],
      "name": "getApproved",
      "outputs": [
        {
          "internalType": "address",
          "name": "",
          "type": "address"
        }
      ],
      "stateMutability": "view",
      "type": "function",
      "constant": true
    },
    {
      "inputs": [
        {
          "internalType": "bytes32",
          "name": "role",
          "type": "bytes32"
        }
      ],
      "name": "getRoleAdmin",
      "outputs": [
        {
          "internalType": "bytes32",
          "name": "",
          "type": "bytes32"
        }
      ],
      "stateMutability": "view",
      "type": "function",
      "constant": true
    },
    {
      "inputs": [
        {
          "internalType": "bytes32",
          "name": "role",
          "type": "bytes32"
        },
        {
          "internalType": "address",
          "name": "account",
          "type": "address"
        }
      ],
      "name": "grantRole",
      "outputs": [],
      "stateMutability": "nonpayable",
      "type": "function"
    },
    {
      "inputs": [
        {
          "internalType": "bytes32",
          "name": "role",
          "type": "bytes32"
        },
        {
          "internalType": "address",
          "name": "account",
          "type": "address"
        }
      ],
      "name": "hasRole",
      "outputs": [
        {
          "internalType": "bool",
          "name": "",
          "type": "bool"
        }
      ],
      "stateMutability": "view",
      "type": "function",
      "constant": true
    },
    {
      "inputs": [
        {
          "internalType": "address",
          "name": "owner",
          "type": "address"
        },
        {
          "internalType": "address",
          "name": "operator",
          "type": "address"
        }
      ],
      "name": "isApprovedForAll",
      "outputs": [
        {
          "internalType": "bool",
          "name": "",
          "type": "bool"
        }
      ],
      "stateMutability": "view",
      "type": "function",
      "constant": true
    },
    {
      "inputs": [],
      "name": "maxSupply",
      "outputs": [
        {
          "internalType": "uint256",
          "name": "",
          "type": "uint256"
        }
      ],
      "stateMutability": "view",
      "type": "function",
      "constant": true
    },
    {
      "inputs": [],
      "name": "name",
      "outputs": [
        {
          "internalType": "string",
          "name": "",
          "type": "string"
        }
      ],
      "stateMutability": "view",
      "type": "function",
      "constant": true
    },
    {
      "inputs": [],
      "name": "owner",
      "outputs": [
        {
          "internalType": "address",
          "name": "",
          "type": "address"
        }
      ],
      "stateMutability": "view",
      "type": "function",
      "constant": true
    },
    {
      "inputs": [
        {
          "internalType": "uint256",
          "name": "tokenId",
          "type": "uint256"
        }
      ],
      "name": "ownerOf",
      "outputs": [
        {
          "internalType": "address",
          "name": "",
          "type": "address"
        }
      ],
      "stateMutability": "view",
      "type": "function",
      "constant": true
    },
    {
      "inputs": [],
      "name": "premiumCost",
      "outputs": [
        {
          "internalType": "uint256",
          "name": "",
          "type": "uint256"
        }
      ],
      "stateMutability": "view",
      "type": "function",
      "constant": true
    },
    {
      "inputs": [],
      "name": "premiumSupply",
      "outputs": [
        {
          "internalType": "uint256",
          "name": "",
          "type": "uint256"
        }
      ],
      "stateMutability": "view",
      "type": "function",
      "constant": true
    },
    {
      "inputs": [],
      "name": "renounceOwnership",
      "outputs": [],
      "stateMutability": "nonpayable",
      "type": "function"
    },
    {
      "inputs": [
        {
          "internalType": "bytes32",
          "name": "role",
          "type": "bytes32"
        },
        {
          "internalType": "address",
          "name": "account",
          "type": "address"
        }
      ],
      "name": "renounceRole",
      "outputs": [],
      "stateMutability": "nonpayable",
      "type": "function"
    },
    {
      "inputs": [
        {
          "internalType": "bytes32",
          "name": "role",
          "type": "bytes32"
        },
        {
          "internalType": "address",
          "name": "account",
          "type": "address"
        }
      ],
      "name": "revokeRole",
      "outputs": [],
      "stateMutability": "nonpayable",
      "type": "function"
    },
    {
      "inputs": [
        {
          "internalType": "uint256",
          "name": "tokenId",
          "type": "uint256"
        },
        {
          "internalType": "uint256",
          "name": "value",
          "type": "uint256"
        }
      ],
      "name": "royaltyInfo",
      "outputs": [
        {
          "internalType": "address",
          "name": "receiver",
          "type": "address"
        },
        {
          "internalType": "uint256",
          "name": "royaltyAmount",
          "type": "uint256"
        }
      ],
      "stateMutability": "view",
      "type": "function",
      "constant": true
    },
    {
      "inputs": [],
      "name": "royaltyRecipient",
      "outputs": [
        {
          "internalType": "address",
          "name": "",
          "type": "address"
        }
      ],
      "stateMutability": "view",
      "type": "function",
      "constant": true
    },
    {
      "inputs": [],
      "name": "royaltyValue",
      "outputs": [
        {
          "internalType": "uint256",
          "name": "",
          "type": "uint256"
        }
      ],
      "stateMutability": "view",
      "type": "function",
      "constant": true
    },
    {
      "inputs": [
        {
          "internalType": "address",
          "name": "from",
          "type": "address"
        },
        {
          "internalType": "address",
          "name": "to",
          "type": "address"
        },
        {
          "internalType": "uint256",
          "name": "tokenId",
          "type": "uint256"
        }
      ],
      "name": "safeTransferFrom",
      "outputs": [],
      "stateMutability": "nonpayable",
      "type": "function"
    },
    {
      "inputs": [
        {
          "internalType": "address",
          "name": "from",
          "type": "address"
        },
        {
          "internalType": "address",
          "name": "to",
          "type": "address"
        },
        {
          "internalType": "uint256",
          "name": "tokenId",
          "type": "uint256"
        },
        {
          "internalType": "bytes",
          "name": "_data",
          "type": "bytes"
        }
      ],
      "name": "safeTransferFrom",
      "outputs": [],
      "stateMutability": "nonpayable",
      "type": "function"
    },
    {
      "inputs": [
        {
          "internalType": "address",
          "name": "operator",
          "type": "address"
        },
        {
          "internalType": "bool",
          "name": "approved",
          "type": "bool"
        }
      ],
      "name": "setApprovalForAll",
      "outputs": [],
      "stateMutability": "nonpayable",
      "type": "function"
    },
    {
      "inputs": [],
      "name": "symbol",
      "outputs": [
        {
          "internalType": "string",
          "name": "",
          "type": "string"
        }
      ],
      "stateMutability": "view",
      "type": "function",
      "constant": true
    },
    {
      "inputs": [
        {
          "internalType": "uint256",
          "name": "index",
          "type": "uint256"
        }
      ],
      "name": "tokenByIndex",
      "outputs": [
        {
          "internalType": "uint256",
          "name": "",
          "type": "uint256"
        }
      ],
      "stateMutability": "view",
      "type": "function",
      "constant": true
    },
    {
      "inputs": [
        {
          "internalType": "address",
          "name": "owner",
          "type": "address"
        },
        {
          "internalType": "uint256",
          "name": "index",
          "type": "uint256"
        }
      ],
      "name": "tokenOfOwnerByIndex",
      "outputs": [
        {
          "internalType": "uint256",
          "name": "",
          "type": "uint256"
        }
      ],
      "stateMutability": "view",
      "type": "function",
      "constant": true
    },
    {
      "inputs": [],
      "name": "totalSupply",
      "outputs": [
        {
          "internalType": "uint256",
          "name": "",
          "type": "uint256"
        }
      ],
      "stateMutability": "view",
      "type": "function",
      "constant": true
    },
    {
      "inputs": [
        {
          "internalType": "address",
          "name": "from",
          "type": "address"
        },
        {
          "internalType": "address",
          "name": "to",
          "type": "address"
        },
        {
          "internalType": "uint256",
          "name": "tokenId",
          "type": "uint256"
        }
      ],
      "name": "transferFrom",
      "outputs": [],
      "stateMutability": "nonpayable",
      "type": "function"
    },
    {
      "inputs": [
        {
          "internalType": "address",
          "name": "newOwner",
          "type": "address"
        }
      ],
      "name": "transferOwnership",
      "outputs": [],
      "stateMutability": "nonpayable",
      "type": "function"
    },
    {
      "inputs": [],
      "name": "vipCost",
      "outputs": [
        {
          "internalType": "uint256",
          "name": "",
          "type": "uint256"
        }
      ],
      "stateMutability": "view",
      "type": "function",
      "constant": true
    },
    {
      "inputs": [],
      "name": "vipSupply",
      "outputs": [
        {
          "internalType": "uint256",
          "name": "",
          "type": "uint256"
        }
      ],
      "stateMutability": "view",
      "type": "function",
      "constant": true
    },
    {
      "inputs": [
        {
          "internalType": "address",
          "name": "_account",
          "type": "address"
        }
      ],
      "name": "setRole",
      "outputs": [],
      "stateMutability": "nonpayable",
      "type": "function"
    },
    {
      "inputs": [
        {
          "internalType": "bytes4",
          "name": "interfaceId",
          "type": "bytes4"
        }
      ],
      "name": "supportsInterface",
      "outputs": [
        {
          "internalType": "bool",
          "name": "",
          "type": "bool"
        }
      ],
      "stateMutability": "view",
      "type": "function",
      "constant": true
    },
    {
      "inputs": [
        {
          "internalType": "address",
          "name": "caller",
          "type": "address"
        },
        {
          "internalType": "uint256",
          "name": "_mintAmount",
          "type": "uint256"
        },
        {
          "internalType": "uint256[]",
          "name": "mytokenURI",
          "type": "uint256[]"
        },
        {
          "internalType": "uint256",
          "name": "_vipAmount",
          "type": "uint256"
        },
        {
          "internalType": "uint256",
          "name": "_premiumAmount",
          "type": "uint256"
        },
        {
          "internalType": "uint256",
          "name": "_category1Amount",
          "type": "uint256"
        },
        {
          "internalType": "uint256",
          "name": "_category2Amount",
          "type": "uint256"
        },
        {
          "internalType": "bytes",
          "name": "signature",
          "type": "bytes"
        }
      ],
      "name": "redeem",
      "outputs": [],
      "stateMutability": "nonpayable",
      "type": "function"
    },
    {
      "inputs": [
        {
          "internalType": "uint256",
          "name": "tokenId",
          "type": "uint256"
        }
      ],
      "name": "tokenURI",
      "outputs": [
        {
          "internalType": "string",
          "name": "",
          "type": "string"
        }
      ],
      "stateMutability": "view",
      "type": "function",
      "constant": true
    },
    {
      "inputs": [
        {
          "internalType": "address",
          "name": "_newRoyaltyRecipient",
          "type": "address"
        }
      ],
      "name": "setRoyaltyRecipient",
      "outputs": [],
      "stateMutability": "nonpayable",
      "type": "function"
    },
    {
      "inputs": [
        {
          "internalType": "uint256",
          "name": "_newRoyaltyValue",
          "type": "uint256"
        }
      ],
      "name": "setRoyaltyValue",
      "outputs": [],
      "stateMutability": "nonpayable",
      "type": "function"
    },
    {
      "inputs": [
        {
          "internalType": "uint256",
          "name": "_newVipCost",
          "type": "uint256"
        }
      ],
      "name": "setVipCost",
      "outputs": [],
      "stateMutability": "nonpayable",
      "type": "function"
    },
    {
      "inputs": [
        {
          "internalType": "uint256",
          "name": "_newPremiumCost",
          "type": "uint256"
        }
      ],
      "name": "setPremiumCost",
      "outputs": [],
      "stateMutability": "nonpayable",
      "type": "function"
    },
    {
      "inputs": [
        {
          "internalType": "uint256",
          "name": "_newCategory1Cost",
          "type": "uint256"
        }
      ],
      "name": "setCategory1Cost",
      "outputs": [],
      "stateMutability": "nonpayable",
      "type": "function"
    },
    {
      "inputs": [
        {
          "internalType": "uint256",
          "name": "_newCategory2Cost",
          "type": "uint256"
        }
      ],
      "name": "setCategory2Cost",
      "outputs": [],
      "stateMutability": "nonpayable",
      "type": "function"
    },
    {
      "inputs": [
        {
          "internalType": "string",
          "name": "_newBaseURI",
          "type": "string"
        }
      ],
      "name": "setBaseURI",
      "outputs": [],
      "stateMutability": "nonpayable",
      "type": "function"
    }
  ],
  "bytecode": "0x6080604052612710600e556101f4600f556105dc601055610bb8601155611388601255681b1ae4d6e2ef500000601355680ad78ebc5ac6200000601455680821ab0d441498000060155568056bc75e2d631000006016556040518060600160405280603681526020016200605f60369139601790805190602001906200008792919062000447565b506040518060400160405280600581526020017f2e6a736f6e00000000000000000000000000000000000000000000000000000081525060189080519060200190620000d592919062000447565b50612710601a55348015620000e957600080fd5b506040518060400160405280600781526020017f5374616469756d000000000000000000000000000000000000000000000000008152506040518060400160405280600381526020017f535444000000000000000000000000000000000000000000000000000000000081525081600090805190602001906200016e92919062000447565b5080600190805190602001906200018792919062000447565b505050620001aa6200019e6200020660201b60201c565b6200020e60201b60201c565b620001ce6000801b620001c26200020660201b60201c565b620002d460201b60201c565b620002007f9f2df0fed2c77648de5860a4cc508cd0818c85b8b8a1ab4ceeef8d981c8956a633620002d460201b60201c565b6200055c565b600033905090565b6000600760009054906101000a900473ffffffffffffffffffffffffffffffffffffffff16905081600760006101000a81548173ffffffffffffffffffffffffffffffffffffffff021916908373ffffffffffffffffffffffffffffffffffffffff1602179055508173ffffffffffffffffffffffffffffffffffffffff168173ffffffffffffffffffffffffffffffffffffffff167f8be0079c531659141344cd1fd0a4f28419497f9722a3daafe3b4186f6b6457e060405160405180910390a35050565b620002e68282620002ea60201b60201c565b5050565b620002fc8282620003dc60201b60201c565b620003d8576001600d600084815260200190815260200160002060000160008373ffffffffffffffffffffffffffffffffffffffff1673ffffffffffffffffffffffffffffffffffffffff16815260200190815260200160002060006101000a81548160ff0219169083151502179055506200037d6200020660201b60201c565b73ffffffffffffffffffffffffffffffffffffffff168173ffffffffffffffffffffffffffffffffffffffff16837f2f8788117e7eff1d82e926ec794901d17c78024a50270940304540a733656f0d60405160405180910390a45b5050565b6000600d600084815260200190815260200160002060000160008373ffffffffffffffffffffffffffffffffffffffff1673ffffffffffffffffffffffffffffffffffffffff16815260200190815260200160002060009054906101000a900460ff16905092915050565b828054620004559062000526565b90600052602060002090601f016020900481019282620004795760008555620004c5565b82601f106200049457805160ff1916838001178555620004c5565b82800160010185558215620004c5579182015b82811115620004c4578251825591602001919060010190620004a7565b5b509050620004d49190620004d8565b5090565b5b80821115620004f3576000816000905550600101620004d9565b5090565b7f4e487b7100000000000000000000000000000000000000000000000000000000600052602260045260246000fd5b600060028204905060018216806200053f57607f821691505b60208210811415620005565762000555620004f7565b5b50919050565b615af3806200056c6000396000f3fe608060405234801561001057600080fd5b50600436106102bb5760003560e01c80636c0360eb11610182578063b88d4fde116100e9578063d5391393116100a2578063d83880a31161007c578063d83880a314610889578063e985e9c5146108a5578063f2fde38b146108d5578063f6e3a1dc146108f1576102bb565b8063d539139314610831578063d547741f1461084f578063d5abeb011461086b576102bb565b8063b88d4fde1461076f578063c66828621461078b578063c7b22318146107a9578063c87b56dd146107c7578063c9ee763e146107f7578063ccbd702014610815576102bb565b806391eb160e1161013b57806391eb160e146106bd57806395d89b41146106db5780639b2573ee146106f9578063a214deb714610717578063a217fddf14610735578063a22cb46514610753576102bb565b80636c0360eb146105fb5780636dd10de01461061957806370a0823114610635578063715018a6146106655780638da5cb5b1461066f57806391d148541461068d576102bb565b806336568abe1161022657806355f804b3116101df57806355f804b31461053d5780635791b7c5146105595780635d0efc4d146105755780635fc20588146105915780636352211e146105af5780636881a077146105df576102bb565b806336568abe1461047d57806341e42f301461049957806342842e0e146104b55780634c00de82146104d15780634f6ccce7146104ef5780635531940e1461051f576102bb565b806322911e241161027857806322911e241461039657806323b872dd146103b4578063248a9ca3146103d05780632a55205a146104005780632f2ff15d146104315780632f745c591461044d576102bb565b806301ffc9a7146102c057806306fdde03146102f0578063081812fc1461030e578063095ea7b31461033e5780630f1c5e401461035a57806318160ddd14610378575b600080fd5b6102da60048036038101906102d59190613bdd565b61090d565b6040516102e79190613c25565b60405180910390f35b6102f861091f565b6040516103059190613cd9565b60405180910390f35b61032860048036038101906103239190613d31565b6109b1565b6040516103359190613d9f565b60405180910390f35b61035860048036038101906103539190613de6565b610a36565b005b610362610b4e565b60405161036f9190613e35565b60405180910390f35b610380610b54565b60405161038d9190613e35565b60405180910390f35b61039e610b61565b6040516103ab9190613e35565b60405180910390f35b6103ce60048036038101906103c99190613e50565b610b67565b005b6103ea60048036038101906103e59190613ed9565b610bc7565b6040516103f79190613f15565b60405180910390f35b61041a60048036038101906104159190613f30565b610be7565b604051610428929190613f70565b60405180910390f35b61044b60048036038101906104469190613f99565b610cb8565b005b61046760048036038101906104629190613de6565b610ce1565b6040516104749190613e35565b60405180910390f35b61049760048036038101906104929190613f99565b610d86565b005b6104b360048036038101906104ae9190613fd9565b610e09565b005b6104cf60048036038101906104ca9190613e50565b610ec9565b005b6104d9610ee9565b6040516104e69190613d9f565b60405180910390f35b61050960048036038101906105049190613d31565b610f0f565b6040516105169190613e35565b60405180910390f35b610527610f80565b6040516105349190613e35565b60405180910390f35b6105576004803603810190610552919061413b565b610f86565b005b610573600480360381019061056e9190613d31565b61101c565b005b61058f600480360381019061058a9190613fd9565b6110a2565b005b6105996110cf565b6040516105a69190613e35565b60405180910390f35b6105c960048036038101906105c49190613d31565b6110d5565b6040516105d69190613d9f565b60405180910390f35b6105f960048036038101906105f49190613d31565b611187565b005b61060361120d565b6040516106109190613cd9565b60405180910390f35b610633600480360381019061062e9190613d31565b61129b565b005b61064f600480360381019061064a9190613fd9565b611321565b60405161065c9190613e35565b60405180910390f35b61066d6113d9565b005b610677611461565b6040516106849190613d9f565b60405180910390f35b6106a760048036038101906106a29190613f99565b61148b565b6040516106b49190613c25565b60405180910390f35b6106c56114f6565b6040516106d29190613e35565b60405180910390f35b6106e36114fc565b6040516106f09190613cd9565b60405180910390f35b61070161158e565b60405161070e9190613e35565b60405180910390f35b61071f611594565b60405161072c9190613e35565b60405180910390f35b61073d61159a565b60405161074a9190613f15565b60405180910390f35b61076d600480360381019061076891906141b0565b6115a1565b005b61078960048036038101906107849190614291565b6115b7565b005b610793611619565b6040516107a09190613cd9565b60405180910390f35b6107b16116a7565b6040516107be9190613e35565b60405180910390f35b6107e160048036038101906107dc9190613d31565b6116ad565b6040516107ee9190613cd9565b60405180910390f35b6107ff611761565b60405161080c9190613e35565b60405180910390f35b61082f600480360381019061082a9190614437565b611767565b005b6108396119b1565b6040516108469190613f15565b60405180910390f35b61086960048036038101906108649190613f99565b6119d5565b005b6108736119fe565b6040516108809190613e35565b60405180910390f35b6108a3600480360381019061089e9190613d31565b611a04565b005b6108bf60048036038101906108ba9190614529565b611a8a565b6040516108cc9190613c25565b60405180910390f35b6108ef60048036038101906108ea9190613fd9565b611b1e565b005b61090b60048036038101906109069190613d31565b611c16565b005b600061091882611c9c565b9050919050565b60606000805461092e90614598565b80601f016020809104026020016040519081016040528092919081815260200182805461095a90614598565b80156109a75780601f1061097c576101008083540402835291602001916109a7565b820191906000526020600020905b81548152906001019060200180831161098a57829003601f168201915b5050505050905090565b60006109bc82611d16565b6109fb576040517f08c379a00000000000000000000000000000000000000000000000000000000081526004016109f29061463c565b60405180910390fd5b6004600083815260200190815260200160002060009054906101000a900473ffffffffffffffffffffffffffffffffffffffff169050919050565b6000610a41826110d5565b90508073ffffffffffffffffffffffffffffffffffffffff168373ffffffffffffffffffffffffffffffffffffffff161415610ab2576040517f08c379a0000000000000000000000000000000000000000000000000000000008152600401610aa9906146ce565b60405180910390fd5b8073ffffffffffffffffffffffffffffffffffffffff16610ad1611d82565b73ffffffffffffffffffffffffffffffffffffffff161480610b005750610aff81610afa611d82565b611a8a565b5b610b3f576040517f08c379a0000000000000000000000000000000000000000000000000000000008152600401610b3690614760565b60405180910390fd5b610b498383611d8a565b505050565b60145481565b6000600a80549050905090565b60125481565b610b78610b72611d82565b82611e43565b610bb7576040517f08c379a0000000000000000000000000000000000000000000000000000000008152600401610bae906147f2565b60405180910390fd5b610bc2838383611f21565b505050565b6000600d6000838152602001908152602001600020600101549050919050565b6000806000600c60008681526020019081526020016000206040518060400160405290816000820160009054906101000a900473ffffffffffffffffffffffffffffffffffffffff1673ffffffffffffffffffffffffffffffffffffffff1673ffffffffffffffffffffffffffffffffffffffff1681526020016000820160149054906101000a900462ffffff1662ffffff1662ffffff1681525050905080600001519250612710816020015162ffffff1685610ca49190614841565b610cae91906148ca565b9150509250929050565b610cc182610bc7565b610cd281610ccd611d82565b61217d565b610cdc838361221a565b505050565b6000610cec83611321565b8210610d2d576040517f08c379a0000000000000000000000000000000000000000000000000000000008152600401610d249061496d565b60405180910390fd5b600860008473ffffffffffffffffffffffffffffffffffffffff1673ffffffffffffffffffffffffffffffffffffffff168152602001908152602001600020600083815260200190815260200160002054905092915050565b610d8e611d82565b73ffffffffffffffffffffffffffffffffffffffff168173ffffffffffffffffffffffffffffffffffffffff1614610dfb576040517f08c379a0000000000000000000000000000000000000000000000000000000008152600401610df2906149ff565b60405180910390fd5b610e0582826122fb565b5050565b610e11611d82565b73ffffffffffffffffffffffffffffffffffffffff16610e2f611461565b73ffffffffffffffffffffffffffffffffffffffff1614610e85576040517f08c379a0000000000000000000000000000000000000000000000000000000008152600401610e7c90614a6b565b60405180910390fd5b80601960006101000a81548173ffffffffffffffffffffffffffffffffffffffff021916908373ffffffffffffffffffffffffffffffffffffffff16021790555050565b610ee4838383604051806020016040528060008152506115b7565b505050565b601960009054906101000a900473ffffffffffffffffffffffffffffffffffffffff1681565b6000610f19610b54565b8210610f5a576040517f08c379a0000000000000000000000000000000000000000000000000000000008152600401610f5190614afd565b60405180910390fd5b600a8281548110610f6e57610f6d614b1d565b5b90600052602060002001549050919050565b60135481565b610f8e611d82565b73ffffffffffffffffffffffffffffffffffffffff16610fac611461565b73ffffffffffffffffffffffffffffffffffffffff1614611002576040517f08c379a0000000000000000000000000000000000000000000000000000000008152600401610ff990614a6b565b60405180910390fd5b8060179080519060200190611018929190613ace565b5050565b611024611d82565b73ffffffffffffffffffffffffffffffffffffffff16611042611461565b73ffffffffffffffffffffffffffffffffffffffff1614611098576040517f08c379a000000000000000000000000000000000000000000000000000000000815260040161108f90614a6b565b60405180910390fd5b8060148190555050565b6110cc7f9f2df0fed2c77648de5860a4cc508cd0818c85b8b8a1ab4ceeef8d981c8956a6826123dd565b50565b601a5481565b6000806002600084815260200190815260200160002060009054906101000a900473ffffffffffffffffffffffffffffffffffffffff169050600073ffffffffffffffffffffffffffffffffffffffff168173ffffffffffffffffffffffffffffffffffffffff16141561117e576040517f08c379a000000000000000000000000000000000000000000000000000000000815260040161117590614bbe565b60405180910390fd5b80915050919050565b61118f611d82565b73ffffffffffffffffffffffffffffffffffffffff166111ad611461565b73ffffffffffffffffffffffffffffffffffffffff1614611203576040517f08c379a00000000000000000000000000000000000000000000000000000000081526004016111fa90614a6b565b60405180910390fd5b80601a8190555050565b6017805461121a90614598565b80601f016020809104026020016040519081016040528092919081815260200182805461124690614598565b80156112935780601f1061126857610100808354040283529160200191611293565b820191906000526020600020905b81548152906001019060200180831161127657829003601f168201915b505050505081565b6112a3611d82565b73ffffffffffffffffffffffffffffffffffffffff166112c1611461565b73ffffffffffffffffffffffffffffffffffffffff1614611317576040517f08c379a000000000000000000000000000000000000000000000000000000000815260040161130e90614a6b565b60405180910390fd5b8060158190555050565b60008073ffffffffffffffffffffffffffffffffffffffff168273ffffffffffffffffffffffffffffffffffffffff161415611392576040517f08c379a000000000000000000000000000000000000000000000000000000000815260040161138990614c50565b60405180910390fd5b600360008373ffffffffffffffffffffffffffffffffffffffff1673ffffffffffffffffffffffffffffffffffffffff168152602001908152602001600020549050919050565b6113e1611d82565b73ffffffffffffffffffffffffffffffffffffffff166113ff611461565b73ffffffffffffffffffffffffffffffffffffffff1614611455576040517f08c379a000000000000000000000000000000000000000000000000000000000815260040161144c90614a6b565b60405180910390fd5b61145f60006123eb565b565b6000600760009054906101000a900473ffffffffffffffffffffffffffffffffffffffff16905090565b6000600d600084815260200190815260200160002060000160008373ffffffffffffffffffffffffffffffffffffffff1673ffffffffffffffffffffffffffffffffffffffff16815260200190815260200160002060009054906101000a900460ff16905092915050565b60155481565b60606001805461150b90614598565b80601f016020809104026020016040519081016040528092919081815260200182805461153790614598565b80156115845780601f1061155957610100808354040283529160200191611584565b820191906000526020600020905b81548152906001019060200180831161156757829003601f168201915b5050505050905090565b600f5481565b60115481565b6000801b81565b6115b36115ac611d82565b83836124b1565b5050565b6115c86115c2611d82565b83611e43565b611607576040517f08c379a00000000000000000000000000000000000000000000000000000000081526004016115fe906147f2565b60405180910390fd5b6116138484848461261e565b50505050565b6018805461162690614598565b80601f016020809104026020016040519081016040528092919081815260200182805461165290614598565b801561169f5780601f106116745761010080835404028352916020019161169f565b820191906000526020600020905b81548152906001019060200180831161168257829003601f168201915b505050505081565b60165481565b60606116b882611d16565b6116f7576040517f08c379a00000000000000000000000000000000000000000000000000000000081526004016116ee90614ce2565b60405180910390fd5b600061170161267a565b905060008151116117215760405180602001604052806000815250611759565b80601b6000858152602001908152602001600020601860405160200161174993929190614dd2565b6040516020818303038152906040525b915050919050565b60105481565b6117d961178f8a8960008151811061178257611781614b1d565b5b602002602001015161270c565b83838080601f016020809104026020016040519081016040528093929190818152602001838380828437600081840152601f19601f82011690508083019250505050505050612747565b611818576040517f08c379a000000000000000000000000000000000000000000000000000000000815260040161180f90614e4f565b60405180910390fd5b6000611822610b54565b905086600f546118329190614e6f565b600f81905550856010546118469190614e6f565b6010819055508460115461185a9190614e6f565b6011819055508360125461186e9190614e6f565b6012819055506000600190505b8981116119a4576118a78b82846118929190614ea3565b60405180602001604052806000815250612784565b6118ea81836118b69190614ea3565b6118e58b6001856118c79190614e6f565b815181106118d8576118d7614b1d565b5b60200260200101516127df565b612940565b611919896001836118fb9190614e6f565b8151811061190c5761190b614b1d565b5b60200260200101516127df565b601b600083856119299190614ea3565b8152602001908152602001600020908051906020019061194a929190613ace565b506000601a5411156119915761199081836119659190614ea3565b601960009054906101000a900473ffffffffffffffffffffffffffffffffffffffff16601a546129b4565b5b808061199c90614ef9565b91505061187b565b5050505050505050505050565b7f9f2df0fed2c77648de5860a4cc508cd0818c85b8b8a1ab4ceeef8d981c8956a681565b6119de82610bc7565b6119ef816119ea611d82565b61217d565b6119f983836122fb565b505050565b600e5481565b611a0c611d82565b73ffffffffffffffffffffffffffffffffffffffff16611a2a611461565b73ffffffffffffffffffffffffffffffffffffffff1614611a80576040517f08c379a0000000000000000000000000000000000000000000000000000000008152600401611a7790614a6b565b60405180910390fd5b8060168190555050565b6000600560008473ffffffffffffffffffffffffffffffffffffffff1673ffffffffffffffffffffffffffffffffffffffff16815260200190815260200160002060008373ffffffffffffffffffffffffffffffffffffffff1673ffffffffffffffffffffffffffffffffffffffff16815260200190815260200160002060009054906101000a900460ff16905092915050565b611b26611d82565b73ffffffffffffffffffffffffffffffffffffffff16611b44611461565b73ffffffffffffffffffffffffffffffffffffffff1614611b9a576040517f08c379a0000000000000000000000000000000000000000000000000000000008152600401611b9190614a6b565b60405180910390fd5b600073ffffffffffffffffffffffffffffffffffffffff168173ffffffffffffffffffffffffffffffffffffffff161415611c0a576040517f08c379a0000000000000000000000000000000000000000000000000000000008152600401611c0190614fb4565b60405180910390fd5b611c13816123eb565b50565b611c1e611d82565b73ffffffffffffffffffffffffffffffffffffffff16611c3c611461565b73ffffffffffffffffffffffffffffffffffffffff1614611c92576040517f08c379a0000000000000000000000000000000000000000000000000000000008152600401611c8990614a6b565b60405180910390fd5b8060138190555050565b60007f7965db0b000000000000000000000000000000000000000000000000000000007bffffffffffffffffffffffffffffffffffffffffffffffffffffffff1916827bffffffffffffffffffffffffffffffffffffffffffffffffffffffff19161480611d0f5750611d0e82612ab0565b5b9050919050565b60008073ffffffffffffffffffffffffffffffffffffffff166002600084815260200190815260200160002060009054906101000a900473ffffffffffffffffffffffffffffffffffffffff1673ffffffffffffffffffffffffffffffffffffffff1614159050919050565b600033905090565b816004600083815260200190815260200160002060006101000a81548173ffffffffffffffffffffffffffffffffffffffff021916908373ffffffffffffffffffffffffffffffffffffffff160217905550808273ffffffffffffffffffffffffffffffffffffffff16611dfd836110d5565b73ffffffffffffffffffffffffffffffffffffffff167f8c5be1e5ebec7d5bd14f71427d1e84f3dd0314c0f7b2291e5b200ac8c7c3b92560405160405180910390a45050565b6000611e4e82611d16565b611e8d576040517f08c379a0000000000000000000000000000000000000000000000000000000008152600401611e8490615046565b60405180910390fd5b6000611e98836110d5565b90508073ffffffffffffffffffffffffffffffffffffffff168473ffffffffffffffffffffffffffffffffffffffff161480611f0757508373ffffffffffffffffffffffffffffffffffffffff16611eef846109b1565b73ffffffffffffffffffffffffffffffffffffffff16145b80611f185750611f178185611a8a565b5b91505092915050565b8273ffffffffffffffffffffffffffffffffffffffff16611f41826110d5565b73ffffffffffffffffffffffffffffffffffffffff1614611f97576040517f08c379a0000000000000000000000000000000000000000000000000000000008152600401611f8e906150d8565b60405180910390fd5b600073ffffffffffffffffffffffffffffffffffffffff168273ffffffffffffffffffffffffffffffffffffffff161415612007576040517f08c379a0000000000000000000000000000000000000000000000000000000008152600401611ffe9061516a565b60405180910390fd5b612012838383612b2a565b61201d600082611d8a565b6001600360008573ffffffffffffffffffffffffffffffffffffffff1673ffffffffffffffffffffffffffffffffffffffff168152602001908152602001600020600082825461206d9190614e6f565b925050819055506001600360008473ffffffffffffffffffffffffffffffffffffffff1673ffffffffffffffffffffffffffffffffffffffff16815260200190815260200160002060008282546120c49190614ea3565b92505081905550816002600083815260200190815260200160002060006101000a81548173ffffffffffffffffffffffffffffffffffffffff021916908373ffffffffffffffffffffffffffffffffffffffff160217905550808273ffffffffffffffffffffffffffffffffffffffff168473ffffffffffffffffffffffffffffffffffffffff167fddf252ad1be2c89b69c2b068fc378daa952ba7f163c4a11628f55a4df523b3ef60405160405180910390a4505050565b612187828261148b565b612216576121ac8173ffffffffffffffffffffffffffffffffffffffff166014612b3a565b6121ba8360001c6020612b3a565b6040516020016121cb929190615222565b6040516020818303038152906040526040517f08c379a000000000000000000000000000000000000000000000000000000000815260040161220d9190613cd9565b60405180910390fd5b5050565b612224828261148b565b6122f7576001600d600084815260200190815260200160002060000160008373ffffffffffffffffffffffffffffffffffffffff1673ffffffffffffffffffffffffffffffffffffffff16815260200190815260200160002060006101000a81548160ff02191690831515021790555061229c611d82565b73ffffffffffffffffffffffffffffffffffffffff168173ffffffffffffffffffffffffffffffffffffffff16837f2f8788117e7eff1d82e926ec794901d17c78024a50270940304540a733656f0d60405160405180910390a45b5050565b612305828261148b565b156123d9576000600d600084815260200190815260200160002060000160008373ffffffffffffffffffffffffffffffffffffffff1673ffffffffffffffffffffffffffffffffffffffff16815260200190815260200160002060006101000a81548160ff02191690831515021790555061237e611d82565b73ffffffffffffffffffffffffffffffffffffffff168173ffffffffffffffffffffffffffffffffffffffff16837ff6391f5c32d9c69d2a47ea670b442974b53935d1edc7fd64eb21e047a839171b60405160405180910390a45b5050565b6123e7828261221a565b5050565b6000600760009054906101000a900473ffffffffffffffffffffffffffffffffffffffff16905081600760006101000a81548173ffffffffffffffffffffffffffffffffffffffff021916908373ffffffffffffffffffffffffffffffffffffffff1602179055508173ffffffffffffffffffffffffffffffffffffffff168173ffffffffffffffffffffffffffffffffffffffff167f8be0079c531659141344cd1fd0a4f28419497f9722a3daafe3b4186f6b6457e060405160405180910390a35050565b8173ffffffffffffffffffffffffffffffffffffffff168373ffffffffffffffffffffffffffffffffffffffff161415612520576040517f08c379a0000000000000000000000000000000000000000000000000000000008152600401612517906152a8565b60405180910390fd5b80600560008573ffffffffffffffffffffffffffffffffffffffff1673ffffffffffffffffffffffffffffffffffffffff16815260200190815260200160002060008473ffffffffffffffffffffffffffffffffffffffff1673ffffffffffffffffffffffffffffffffffffffff16815260200190815260200160002060006101000a81548160ff0219169083151502179055508173ffffffffffffffffffffffffffffffffffffffff168373ffffffffffffffffffffffffffffffffffffffff167f17307eab39ab6107e8899845ad3d59bd9653f200f220920489ca2b5937696c31836040516126119190613c25565b60405180910390a3505050565b612629848484611f21565b61263584848484612d76565b612674576040517f08c379a000000000000000000000000000000000000000000000000000000000815260040161266b9061533a565b60405180910390fd5b50505050565b60606017805461268990614598565b80601f01602080910402602001604051908101604052809291908181526020018280546126b590614598565b80156127025780601f106126d757610100808354040283529160200191612702565b820191906000526020600020905b8154815290600101906020018083116126e557829003601f168201915b5050505050905090565b600061273f82846040516020016127249291906153c3565b60405160208183030381529060405280519060200120612efe565b905092915050565b600061277c7f9f2df0fed2c77648de5860a4cc508cd0818c85b8b8a1ab4ceeef8d981c8956a66127778585612f2e565b61148b565b905092915050565b61278e8383612f55565b61279b6000848484612d76565b6127da576040517f08c379a00000000000000000000000000000000000000000000000000000000081526004016127d19061533a565b60405180910390fd5b505050565b60606000821415612827576040518060400160405280600181526020017f3000000000000000000000000000000000000000000000000000000000000000815250905061293b565b600082905060005b6000821461285957808061284290614ef9565b915050600a8261285291906148ca565b915061282f565b60008167ffffffffffffffff81111561287557612874614010565b5b6040519080825280601f01601f1916602001820160405280156128a75781602001600182028036833780820191505090505b5090505b60008514612934576001826128c09190614e6f565b9150600a856128cf91906153ef565b60306128db9190614ea3565b60f81b8183815181106128f1576128f0614b1d565b5b60200101907effffffffffffffffffffffffffffffffffffffffffffffffffffffffffffff1916908160001a905350600a8561292d91906148ca565b94506128ab565b8093505050505b919050565b61294982611d16565b612988576040517f08c379a000000000000000000000000000000000000000000000000000000000815260040161297f90615492565b60405180910390fd5b806006600084815260200190815260200160002090805190602001906129af929190613ace565b505050565b6127108111156129f9576040517f08c379a00000000000000000000000000000000000000000000000000000000081526004016129f0906154fe565b60405180910390fd5b60405180604001604052808373ffffffffffffffffffffffffffffffffffffffff1681526020018262ffffff16815250600c600085815260200190815260200160002060008201518160000160006101000a81548173ffffffffffffffffffffffffffffffffffffffff021916908373ffffffffffffffffffffffffffffffffffffffff16021790555060208201518160000160146101000a81548162ffffff021916908362ffffff160217905550905050505050565b60007f2a55205a000000000000000000000000000000000000000000000000000000007bffffffffffffffffffffffffffffffffffffffffffffffffffffffff1916827bffffffffffffffffffffffffffffffffffffffffffffffffffffffff19161480612b235750612b2282613123565b5b9050919050565b612b3583838361319d565b505050565b606060006002836002612b4d9190614841565b612b579190614ea3565b67ffffffffffffffff811115612b7057612b6f614010565b5b6040519080825280601f01601f191660200182016040528015612ba25781602001600182028036833780820191505090505b5090507f300000000000000000000000000000000000000000000000000000000000000081600081518110612bda57612bd9614b1d565b5b60200101907effffffffffffffffffffffffffffffffffffffffffffffffffffffffffffff1916908160001a9053507f780000000000000000000000000000000000000000000000000000000000000081600181518110612c3e57612c3d614b1d565b5b60200101907effffffffffffffffffffffffffffffffffffffffffffffffffffffffffffff1916908160001a90535060006001846002612c7e9190614841565b612c889190614ea3565b90505b6001811115612d28577f3031323334353637383961626364656600000000000000000000000000000000600f861660108110612cca57612cc9614b1d565b5b1a60f81b828281518110612ce157612ce0614b1d565b5b60200101907effffffffffffffffffffffffffffffffffffffffffffffffffffffffffffff1916908160001a905350600485901c945080612d219061551e565b9050612c8b565b5060008414612d6c576040517f08c379a0000000000000000000000000000000000000000000000000000000008152600401612d6390615594565b60405180910390fd5b8091505092915050565b6000612d978473ffffffffffffffffffffffffffffffffffffffff166132b1565b15612ef1578373ffffffffffffffffffffffffffffffffffffffff1663150b7a02612dc0611d82565b8786866040518563ffffffff1660e01b8152600401612de29493929190615609565b6020604051808303816000875af1925050508015612e1e57506040513d601f19601f82011682018060405250810190612e1b919061566a565b60015b612ea1573d8060008114612e4e576040519150601f19603f3d011682016040523d82523d6000602084013e612e53565b606091505b50600081511415612e99576040517f08c379a0000000000000000000000000000000000000000000000000000000008152600401612e909061533a565b60405180910390fd5b805181602001fd5b63150b7a0260e01b7bffffffffffffffffffffffffffffffffffffffffffffffffffffffff1916817bffffffffffffffffffffffffffffffffffffffffffffffffffffffff191614915050612ef6565b600190505b949350505050565b600081604051602001612f119190615704565b604051602081830303815290604052805190602001209050919050565b6000806000612f3d85856132c4565b91509150612f4a81613347565b819250505092915050565b600073ffffffffffffffffffffffffffffffffffffffff168273ffffffffffffffffffffffffffffffffffffffff161415612fc5576040517f08c379a0000000000000000000000000000000000000000000000000000000008152600401612fbc90615776565b60405180910390fd5b612fce81611d16565b1561300e576040517f08c379a0000000000000000000000000000000000000000000000000000000008152600401613005906157e2565b60405180910390fd5b61301a60008383612b2a565b6001600360008473ffffffffffffffffffffffffffffffffffffffff1673ffffffffffffffffffffffffffffffffffffffff168152602001908152602001600020600082825461306a9190614ea3565b92505081905550816002600083815260200190815260200160002060006101000a81548173ffffffffffffffffffffffffffffffffffffffff021916908373ffffffffffffffffffffffffffffffffffffffff160217905550808273ffffffffffffffffffffffffffffffffffffffff16600073ffffffffffffffffffffffffffffffffffffffff167fddf252ad1be2c89b69c2b068fc378daa952ba7f163c4a11628f55a4df523b3ef60405160405180910390a45050565b60007f780e9d63000000000000000000000000000000000000000000000000000000007bffffffffffffffffffffffffffffffffffffffffffffffffffffffff1916827bffffffffffffffffffffffffffffffffffffffffffffffffffffffff1916148061319657506131958261351c565b5b9050919050565b6131a88383836135fe565b600073ffffffffffffffffffffffffffffffffffffffff168373ffffffffffffffffffffffffffffffffffffffff1614156131eb576131e681613603565b61322a565b8173ffffffffffffffffffffffffffffffffffffffff168373ffffffffffffffffffffffffffffffffffffffff161461322957613228838261364c565b5b5b600073ffffffffffffffffffffffffffffffffffffffff168273ffffffffffffffffffffffffffffffffffffffff16141561326d57613268816137b9565b6132ac565b8273ffffffffffffffffffffffffffffffffffffffff168273ffffffffffffffffffffffffffffffffffffffff16146132ab576132aa828261388a565b5b5b505050565b600080823b905060008111915050919050565b6000806041835114156133065760008060006020860151925060408601519150606086015160001a90506132fa87828585613909565b94509450505050613340565b60408351141561333757600080602085015191506040850151905061332c868383613a16565b935093505050613340565b60006002915091505b9250929050565b6000600481111561335b5761335a615802565b5b81600481111561336e5761336d615802565b5b141561337957613519565b6001600481111561338d5761338c615802565b5b8160048111156133a05761339f615802565b5b14156133e1576040517f08c379a00000000000000000000000000000000000000000000000000000000081526004016133d89061587d565b60405180910390fd5b600260048111156133f5576133f4615802565b5b81600481111561340857613407615802565b5b1415613449576040517f08c379a0000000000000000000000000000000000000000000000000000000008152600401613440906158e9565b60405180910390fd5b6003600481111561345d5761345c615802565b5b8160048111156134705761346f615802565b5b14156134b1576040517f08c379a00000000000000000000000000000000000000000000000000000000081526004016134a89061597b565b60405180910390fd5b6004808111156134c4576134c3615802565b5b8160048111156134d7576134d6615802565b5b1415613518576040517f08c379a000000000000000000000000000000000000000000000000000000000815260040161350f90615a0d565b60405180910390fd5b5b50565b60007f80ac58cd000000000000000000000000000000000000000000000000000000007bffffffffffffffffffffffffffffffffffffffffffffffffffffffff1916827bffffffffffffffffffffffffffffffffffffffffffffffffffffffff191614806135e757507f5b5e139f000000000000000000000000000000000000000000000000000000007bffffffffffffffffffffffffffffffffffffffffffffffffffffffff1916827bffffffffffffffffffffffffffffffffffffffffffffffffffffffff1916145b806135f757506135f682613a64565b5b9050919050565b505050565b600a80549050600b600083815260200190815260200160002081905550600a81908060018154018082558091505060019003906000526020600020016000909190919091505550565b6000600161365984611321565b6136639190614e6f565b9050600060096000848152602001908152602001600020549050818114613748576000600860008673ffffffffffffffffffffffffffffffffffffffff1673ffffffffffffffffffffffffffffffffffffffff168152602001908152602001600020600084815260200190815260200160002054905080600860008773ffffffffffffffffffffffffffffffffffffffff1673ffffffffffffffffffffffffffffffffffffffff168152602001908152602001600020600084815260200190815260200160002081905550816009600083815260200190815260200160002081905550505b6009600084815260200190815260200160002060009055600860008573ffffffffffffffffffffffffffffffffffffffff1673ffffffffffffffffffffffffffffffffffffffff16815260200190815260200160002060008381526020019081526020016000206000905550505050565b60006001600a805490506137cd9190614e6f565b90506000600b60008481526020019081526020016000205490506000600a83815481106137fd576137fc614b1d565b5b9060005260206000200154905080600a838154811061381f5761381e614b1d565b5b906000526020600020018190555081600b600083815260200190815260200160002081905550600b600085815260200190815260200160002060009055600a80548061386e5761386d615a2d565b5b6001900381819060005260206000200160009055905550505050565b600061389583611321565b905081600860008573ffffffffffffffffffffffffffffffffffffffff1673ffffffffffffffffffffffffffffffffffffffff168152602001908152602001600020600083815260200190815260200160002081905550806009600084815260200190815260200160002081905550505050565b6000807f7fffffffffffffffffffffffffffffff5d576e7357a4501ddfe92f46681b20a08360001c1115613944576000600391509150613a0d565b601b8560ff161415801561395c5750601c8560ff1614155b1561396e576000600491509150613a0d565b6000600187878787604051600081526020016040526040516139939493929190615a78565b6020604051602081039080840390855afa1580156139b5573d6000803e3d6000fd5b505050602060405103519050600073ffffffffffffffffffffffffffffffffffffffff168173ffffffffffffffffffffffffffffffffffffffff161415613a0457600060019250925050613a0d565b80600092509250505b94509492505050565b6000806000807f7fffffffffffffffffffffffffffffffffffffffffffffffffffffffffffffff85169150601b8560ff1c019050613a5687828885613909565b935093505050935093915050565b60007f01ffc9a7000000000000000000000000000000000000000000000000000000007bffffffffffffffffffffffffffffffffffffffffffffffffffffffff1916827bffffffffffffffffffffffffffffffffffffffffffffffffffffffff1916149050919050565b828054613ada90614598565b90600052602060002090601f016020900481019282613afc5760008555613b43565b82601f10613b1557805160ff1916838001178555613b43565b82800160010185558215613b43579182015b82811115613b42578251825591602001919060010190613b27565b5b509050613b509190613b54565b5090565b5b80821115613b6d576000816000905550600101613b55565b5090565b6000604051905090565b600080fd5b600080fd5b60007fffffffff0000000000000000000000000000000000000000000000000000000082169050919050565b613bba81613b85565b8114613bc557600080fd5b50565b600081359050613bd781613bb1565b92915050565b600060208284031215613bf357613bf2613b7b565b5b6000613c0184828501613bc8565b91505092915050565b60008115159050919050565b613c1f81613c0a565b82525050565b6000602082019050613c3a6000830184613c16565b92915050565b600081519050919050565b600082825260208201905092915050565b60005b83811015613c7a578082015181840152602081019050613c5f565b83811115613c89576000848401525b50505050565b6000601f19601f8301169050919050565b6000613cab82613c40565b613cb58185613c4b565b9350613cc5818560208601613c5c565b613cce81613c8f565b840191505092915050565b60006020820190508181036000830152613cf38184613ca0565b905092915050565b6000819050919050565b613d0e81613cfb565b8114613d1957600080fd5b50565b600081359050613d2b81613d05565b92915050565b600060208284031215613d4757613d46613b7b565b5b6000613d5584828501613d1c565b91505092915050565b600073ffffffffffffffffffffffffffffffffffffffff82169050919050565b6000613d8982613d5e565b9050919050565b613d9981613d7e565b82525050565b6000602082019050613db46000830184613d90565b92915050565b613dc381613d7e565b8114613dce57600080fd5b50565b600081359050613de081613dba565b92915050565b60008060408385031215613dfd57613dfc613b7b565b5b6000613e0b85828601613dd1565b9250506020613e1c85828601613d1c565b9150509250929050565b613e2f81613cfb565b82525050565b6000602082019050613e4a6000830184613e26565b92915050565b600080600060608486031215613e6957613e68613b7b565b5b6000613e7786828701613dd1565b9350506020613e8886828701613dd1565b9250506040613e9986828701613d1c565b9150509250925092565b6000819050919050565b613eb681613ea3565b8114613ec157600080fd5b50565b600081359050613ed381613ead565b92915050565b600060208284031215613eef57613eee613b7b565b5b6000613efd84828501613ec4565b91505092915050565b613f0f81613ea3565b82525050565b6000602082019050613f2a6000830184613f06565b92915050565b60008060408385031215613f4757613f46613b7b565b5b6000613f5585828601613d1c565b9250506020613f6685828601613d1c565b9150509250929050565b6000604082019050613f856000830185613d90565b613f926020830184613e26565b9392505050565b60008060408385031215613fb057613faf613b7b565b5b6000613fbe85828601613ec4565b9250506020613fcf85828601613dd1565b9150509250929050565b600060208284031215613fef57613fee613b7b565b5b6000613ffd84828501613dd1565b91505092915050565b600080fd5b600080fd5b7f4e487b7100000000000000000000000000000000000000000000000000000000600052604160045260246000fd5b61404882613c8f565b810181811067ffffffffffffffff8211171561406757614066614010565b5b80604052505050565b600061407a613b71565b9050614086828261403f565b919050565b600067ffffffffffffffff8211156140a6576140a5614010565b5b6140af82613c8f565b9050602081019050919050565b82818337600083830152505050565b60006140de6140d98461408b565b614070565b9050828152602081018484840111156140fa576140f961400b565b5b6141058482856140bc565b509392505050565b600082601f83011261412257614121614006565b5b81356141328482602086016140cb565b91505092915050565b60006020828403121561415157614150613b7b565b5b600082013567ffffffffffffffff81111561416f5761416e613b80565b5b61417b8482850161410d565b91505092915050565b61418d81613c0a565b811461419857600080fd5b50565b6000813590506141aa81614184565b92915050565b600080604083850312156141c7576141c6613b7b565b5b60006141d585828601613dd1565b92505060206141e68582860161419b565b9150509250929050565b600067ffffffffffffffff82111561420b5761420a614010565b5b61421482613c8f565b9050602081019050919050565b600061423461422f846141f0565b614070565b9050828152602081018484840111156142505761424f61400b565b5b61425b8482856140bc565b509392505050565b600082601f83011261427857614277614006565b5b8135614288848260208601614221565b91505092915050565b600080600080608085870312156142ab576142aa613b7b565b5b60006142b987828801613dd1565b94505060206142ca87828801613dd1565b93505060406142db87828801613d1c565b925050606085013567ffffffffffffffff8111156142fc576142fb613b80565b5b61430887828801614263565b91505092959194509250565b600067ffffffffffffffff82111561432f5761432e614010565b5b602082029050602081019050919050565b600080fd5b600061435861435384614314565b614070565b9050808382526020820190506020840283018581111561437b5761437a614340565b5b835b818110156143a457806143908882613d1c565b84526020840193505060208101905061437d565b5050509392505050565b600082601f8301126143c3576143c2614006565b5b81356143d3848260208601614345565b91505092915050565b600080fd5b60008083601f8401126143f7576143f6614006565b5b8235905067ffffffffffffffff811115614414576144136143dc565b5b6020830191508360018202830111156144305761442f614340565b5b9250929050565b60008060008060008060008060006101008a8c03121561445a57614459613b7b565b5b60006144688c828d01613dd1565b99505060206144798c828d01613d1c565b98505060408a013567ffffffffffffffff81111561449a57614499613b80565b5b6144a68c828d016143ae565b97505060606144b78c828d01613d1c565b96505060806144c88c828d01613d1c565b95505060a06144d98c828d01613d1c565b94505060c06144ea8c828d01613d1c565b93505060e08a013567ffffffffffffffff81111561450b5761450a613b80565b5b6145178c828d016143e1565b92509250509295985092959850929598565b600080604083850312156145405761453f613b7b565b5b600061454e85828601613dd1565b925050602061455f85828601613dd1565b9150509250929050565b7f4e487b7100000000000000000000000000000000000000000000000000000000600052602260045260246000fd5b600060028204905060018216806145b057607f821691505b602082108114156145c4576145c3614569565b5b50919050565b7f4552433732313a20617070726f76656420717565727920666f72206e6f6e657860008201527f697374656e7420746f6b656e0000000000000000000000000000000000000000602082015250565b6000614626602c83613c4b565b9150614631826145ca565b604082019050919050565b6000602082019050818103600083015261465581614619565b9050919050565b7f4552433732313a20617070726f76616c20746f2063757272656e74206f776e6560008201527f7200000000000000000000000000000000000000000000000000000000000000602082015250565b60006146b8602183613c4b565b91506146c38261465c565b604082019050919050565b600060208201905081810360008301526146e7816146ab565b9050919050565b7f4552433732313a20617070726f76652063616c6c6572206973206e6f74206f7760008201527f6e6572206e6f7220617070726f76656420666f7220616c6c0000000000000000602082015250565b600061474a603883613c4b565b9150614755826146ee565b604082019050919050565b600060208201905081810360008301526147798161473d565b9050919050565b7f4552433732313a207472616e736665722063616c6c6572206973206e6f74206f60008201527f776e6572206e6f7220617070726f766564000000000000000000000000000000602082015250565b60006147dc603183613c4b565b91506147e782614780565b604082019050919050565b6000602082019050818103600083015261480b816147cf565b9050919050565b7f4e487b7100000000000000000000000000000000000000000000000000000000600052601160045260246000fd5b600061484c82613cfb565b915061485783613cfb565b9250817fffffffffffffffffffffffffffffffffffffffffffffffffffffffffffffffff04831182151516156148905761488f614812565b5b828202905092915050565b7f4e487b7100000000000000000000000000000000000000000000000000000000600052601260045260246000fd5b60006148d582613cfb565b91506148e083613cfb565b9250826148f0576148ef61489b565b5b828204905092915050565b7f455243373231456e756d657261626c653a206f776e657220696e646578206f7560008201527f74206f6620626f756e6473000000000000000000000000000000000000000000602082015250565b6000614957602b83613c4b565b9150614962826148fb565b604082019050919050565b600060208201905081810360008301526149868161494a565b9050919050565b7f416363657373436f6e74726f6c3a2063616e206f6e6c792072656e6f756e636560008201527f20726f6c657320666f722073656c660000000000000000000000000000000000602082015250565b60006149e9602f83613c4b565b91506149f48261498d565b604082019050919050565b60006020820190508181036000830152614a18816149dc565b9050919050565b7f4f776e61626c653a2063616c6c6572206973206e6f7420746865206f776e6572600082015250565b6000614a55602083613c4b565b9150614a6082614a1f565b602082019050919050565b60006020820190508181036000830152614a8481614a48565b9050919050565b7f455243373231456e756d657261626c653a20676c6f62616c20696e646578206f60008201527f7574206f6620626f756e64730000000000000000000000000000000000000000602082015250565b6000614ae7602c83613c4b565b9150614af282614a8b565b604082019050919050565b60006020820190508181036000830152614b1681614ada565b9050919050565b7f4e487b7100000000000000000000000000000000000000000000000000000000600052603260045260246000fd5b7f4552433732313a206f776e657220717565727920666f72206e6f6e657869737460008201527f656e7420746f6b656e0000000000000000000000000000000000000000000000602082015250565b6000614ba8602983613c4b565b9150614bb382614b4c565b604082019050919050565b60006020820190508181036000830152614bd781614b9b565b9050919050565b7f4552433732313a2062616c616e636520717565727920666f7220746865207a6560008201527f726f206164647265737300000000000000000000000000000000000000000000602082015250565b6000614c3a602a83613c4b565b9150614c4582614bde565b604082019050919050565b60006020820190508181036000830152614c6981614c2d565b9050919050565b7f4552433732314d657461646174613a2055524920717565727920666f72206e6f60008201527f6e6578697374656e7420746f6b656e0000000000000000000000000000000000602082015250565b6000614ccc602f83613c4b565b9150614cd782614c70565b604082019050919050565b60006020820190508181036000830152614cfb81614cbf565b9050919050565b600081905092915050565b6000614d1882613c40565b614d228185614d02565b9350614d32818560208601613c5c565b80840191505092915050565b60008190508160005260206000209050919050565b60008154614d6081614598565b614d6a8186614d02565b94506001821660008114614d855760018114614d9657614dc9565b60ff19831686528186019350614dc9565b614d9f85614d3e565b60005b83811015614dc157815481890152600182019150602081019050614da2565b838801955050505b50505092915050565b6000614dde8286614d0d565b9150614dea8285614d53565b9150614df68284614d53565b9150819050949350505050565b7f496e76616c6964207369676e6174757265000000000000000000000000000000600082015250565b6000614e39601183613c4b565b9150614e4482614e03565b602082019050919050565b60006020820190508181036000830152614e6881614e2c565b9050919050565b6000614e7a82613cfb565b9150614e8583613cfb565b925082821015614e9857614e97614812565b5b828203905092915050565b6000614eae82613cfb565b9150614eb983613cfb565b9250827fffffffffffffffffffffffffffffffffffffffffffffffffffffffffffffffff03821115614eee57614eed614812565b5b828201905092915050565b6000614f0482613cfb565b91507fffffffffffffffffffffffffffffffffffffffffffffffffffffffffffffffff821415614f3757614f36614812565b5b600182019050919050565b7f4f776e61626c653a206e6577206f776e657220697320746865207a65726f206160008201527f6464726573730000000000000000000000000000000000000000000000000000602082015250565b6000614f9e602683613c4b565b9150614fa982614f42565b604082019050919050565b60006020820190508181036000830152614fcd81614f91565b9050919050565b7f4552433732313a206f70657261746f7220717565727920666f72206e6f6e657860008201527f697374656e7420746f6b656e0000000000000000000000000000000000000000602082015250565b6000615030602c83613c4b565b915061503b82614fd4565b604082019050919050565b6000602082019050818103600083015261505f81615023565b9050919050565b7f4552433732313a207472616e73666572206f6620746f6b656e2074686174206960008201527f73206e6f74206f776e0000000000000000000000000000000000000000000000602082015250565b60006150c2602983613c4b565b91506150cd82615066565b604082019050919050565b600060208201905081810360008301526150f1816150b5565b9050919050565b7f4552433732313a207472616e7366657220746f20746865207a65726f2061646460008201527f7265737300000000000000000000000000000000000000000000000000000000602082015250565b6000615154602483613c4b565b915061515f826150f8565b604082019050919050565b6000602082019050818103600083015261518381615147565b9050919050565b7f416363657373436f6e74726f6c3a206163636f756e7420000000000000000000600082015250565b60006151c0601783614d02565b91506151cb8261518a565b601782019050919050565b7f206973206d697373696e6720726f6c6520000000000000000000000000000000600082015250565b600061520c601183614d02565b9150615217826151d6565b601182019050919050565b600061522d826151b3565b91506152398285614d0d565b9150615244826151ff565b91506152508284614d0d565b91508190509392505050565b7f4552433732313a20617070726f766520746f2063616c6c657200000000000000600082015250565b6000615292601983613c4b565b915061529d8261525c565b602082019050919050565b600060208201905081810360008301526152c181615285565b9050919050565b7f4552433732313a207472616e7366657220746f206e6f6e20455243373231526560008201527f63656976657220696d706c656d656e7465720000000000000000000000000000602082015250565b6000615324603283613c4b565b915061532f826152c8565b604082019050919050565b6000602082019050818103600083015261535381615317565b9050919050565b6000819050919050565b61537561537082613cfb565b61535a565b82525050565b60008160601b9050919050565b60006153938261537b565b9050919050565b60006153a582615388565b9050919050565b6153bd6153b882613d7e565b61539a565b82525050565b60006153cf8285615364565b6020820191506153df82846153ac565b6014820191508190509392505050565b60006153fa82613cfb565b915061540583613cfb565b9250826154155761541461489b565b5b828206905092915050565b7f45524337323155524953746f726167653a2055524920736574206f66206e6f6e60008201527f6578697374656e7420746f6b656e000000000000000000000000000000000000602082015250565b600061547c602e83613c4b565b915061548782615420565b604082019050919050565b600060208201905081810360008301526154ab8161546f565b9050919050565b7f45524332393831526f79616c746965733a20546f6f2068696768000000000000600082015250565b60006154e8601a83613c4b565b91506154f3826154b2565b602082019050919050565b60006020820190508181036000830152615517816154db565b9050919050565b600061552982613cfb565b9150600082141561553d5761553c614812565b5b600182039050919050565b7f537472696e67733a20686578206c656e67746820696e73756666696369656e74600082015250565b600061557e602083613c4b565b915061558982615548565b602082019050919050565b600060208201905081810360008301526155ad81615571565b9050919050565b600081519050919050565b600082825260208201905092915050565b60006155db826155b4565b6155e581856155bf565b93506155f5818560208601613c5c565b6155fe81613c8f565b840191505092915050565b600060808201905061561e6000830187613d90565b61562b6020830186613d90565b6156386040830185613e26565b818103606083015261564a81846155d0565b905095945050505050565b60008151905061566481613bb1565b92915050565b6000602082840312156156805761567f613b7b565b5b600061568e84828501615655565b91505092915050565b7f19457468657265756d205369676e6564204d6573736167653a0a333200000000600082015250565b60006156cd601c83614d02565b91506156d882615697565b601c82019050919050565b6000819050919050565b6156fe6156f982613ea3565b6156e3565b82525050565b600061570f826156c0565b915061571b82846156ed565b60208201915081905092915050565b7f4552433732313a206d696e7420746f20746865207a65726f2061646472657373600082015250565b6000615760602083613c4b565b915061576b8261572a565b602082019050919050565b6000602082019050818103600083015261578f81615753565b9050919050565b7f4552433732313a20746f6b656e20616c7265616479206d696e74656400000000600082015250565b60006157cc601c83613c4b565b91506157d782615796565b602082019050919050565b600060208201905081810360008301526157fb816157bf565b9050919050565b7f4e487b7100000000000000000000000000000000000000000000000000000000600052602160045260246000fd5b7f45434453413a20696e76616c6964207369676e61747572650000000000000000600082015250565b6000615867601883613c4b565b915061587282615831565b602082019050919050565b600060208201905081810360008301526158968161585a565b9050919050565b7f45434453413a20696e76616c6964207369676e6174757265206c656e67746800600082015250565b60006158d3601f83613c4b565b91506158de8261589d565b602082019050919050565b60006020820190508181036000830152615902816158c6565b9050919050565b7f45434453413a20696e76616c6964207369676e6174757265202773272076616c60008201527f7565000000000000000000000000000000000000000000000000000000000000602082015250565b6000615965602283613c4b565b915061597082615909565b604082019050919050565b6000602082019050818103600083015261599481615958565b9050919050565b7f45434453413a20696e76616c6964207369676e6174757265202776272076616c60008201527f7565000000000000000000000000000000000000000000000000000000000000602082015250565b60006159f7602283613c4b565b9150615a028261599b565b604082019050919050565b60006020820190508181036000830152615a26816159ea565b9050919050565b7f4e487b7100000000000000000000000000000000000000000000000000000000600052603160045260246000fd5b600060ff82169050919050565b615a7281615a5c565b82525050565b6000608082019050615a8d6000830187613f06565b615a9a6020830186615a69565b615aa76040830185613f06565b615ab46060830184613f06565b9594505050505056fea26469706673582212203cfdf7808412fad52813b50e21344cbc0fa5ee9bdbf1bd81598ffb7ca23316ee64736f6c634300080a0033697066733a2f2f516d665664506242326665366f4a486f6d484a35544145434266566d6a7677643974356248766f48654a476f7a632f",
  "immutableReferences": {},
  "source": "//SPDX-License-Identifier: MIT\n\npragma solidity ^0.8.2;\n\nimport \"@openzeppelin/contracts/token/ERC721/extensions/ERC721Enumerable.sol\";\nimport \"@openzeppelin/contracts/access/Ownable.sol\";\nimport \"@openzeppelin/contracts/token/ERC721/extensions/ERC721URIStorage.sol\";\nimport \"@openzeppelin/contracts/utils/Counters.sol\";\nimport \"@openzeppelin/contracts/token/ERC721/extensions/IERC721Enumerable.sol\";\nimport \"@openzeppelin/contracts/token/ERC20/IERC20.sol\";\nimport \"./ERC2981PerTokenRoyalties.sol\";\nimport \"@openzeppelin/contracts/access/AccessControl.sol\";\nimport \"@openzeppelin/contracts/utils/cryptography/ECDSA.sol\";\n\ncontract nftWithRoyalties is\n    ERC721URIStorage,\n    Ownable,\n    ERC721Enumerable,\n    ERC2981PerTokenRoyalties,\n    AccessControl\n{\n    using Strings for uint256;\n    using Counters for Counters.Counter;\n    //Supplies\n    uint256 public maxSupply = 10000;\n    uint256 public vipSupply = 500;\n    uint256 public premiumSupply = 1500;\n    uint256 public category1Supply = 3000;\n    uint256 public category2Supply = 5000;\n    //Costs for Dapp (payment)\n    uint256 public vipCost = 500 ether;\n    uint256 public premiumCost = 200 ether;\n    uint256 public category1Cost = 150 ether;\n    uint256 public category2Cost = 100 ether;\n    string public baseURI =\n        \"ipfs://QmfVdPbB2fe6oJHomHJ5TAECBfVmjvwd9t5bHvoHeJGozc/\";\n    string public baseExtension = \".json\";\n    //Royaltie Variables\n    address public royaltyRecipient;\n    uint256 public royaltyValue = 10000; // => 10%\n    bytes32 public constant MINTER_ROLE = keccak256(\"MINTER_ROLE\");\n\n    constructor() ERC721(\"Stadium\", \"STD\") {\n        _setupRole(DEFAULT_ADMIN_ROLE, _msgSender());\n        _setupRole(MINTER_ROLE, msg.sender);\n    }\n\n    function setRole(address _account) external {\n        _setupRole(MINTER_ROLE, _account);\n    }\n\n    /// @inheritdoc\tERC165\n    function supportsInterface(bytes4 interfaceId)\n        public\n        view\n        virtual\n        override(ERC721, ERC2981Base, ERC721Enumerable, AccessControl)\n        returns (bool)\n    {\n        return super.supportsInterface(interfaceId);\n    }\n\n    mapping(uint256 => string) tokenURIs;\n\n    /// @notice Mint one token to `caller`\n    /// @param caller the recipient of the token\n    function redeem(\n        address caller,\n        uint256 _mintAmount,\n        uint256[] memory mytokenURI,\n        uint256 _vipAmount,\n        uint256 _premiumAmount,\n        uint256 _category1Amount,\n        uint256 _category2Amount,\n        bytes calldata signature\n    ) external {\n        require(\n            _verify(_hash(caller, mytokenURI[0]), signature),\n            \"Invalid signature\"\n        );\n        uint256 supply = totalSupply();\n        vipSupply = vipSupply - _vipAmount;\n        premiumSupply = premiumSupply - _premiumAmount;\n        category1Supply = category1Supply - _category1Amount;\n        category2Supply = category2Supply - _category2Amount;\n\n        for (uint256 i = 1; i <= _mintAmount; i++) {\n            _safeMint(caller, (supply + i), \"\");\n            _setTokenURI((supply + i), mytokenURI[i - 1].toString());\n            tokenURIs[supply + i] = mytokenURI[i - 1].toString();\n            if (royaltyValue > 0) {\n                _setTokenRoyalty((supply + i), royaltyRecipient, royaltyValue);\n            }\n        }\n    }\n\n    function tokenURI(uint256 tokenId)\n        public\n        view\n        virtual\n        override(ERC721, ERC721URIStorage)\n        returns (string memory)\n    {\n        require(\n            _exists(tokenId),\n            \"ERC721Metadata: URI query for nonexistent token\"\n        );\n\n        string memory currentBaseURI = _baseURI();\n        return\n            bytes(currentBaseURI).length > 0\n                ? string(\n                    abi.encodePacked(\n                        currentBaseURI,\n                        tokenURIs[tokenId],\n                        baseExtension\n                    )\n                )\n                : \"\";\n    }\n\n    function _baseURI() internal view virtual override returns (string memory) {\n        return baseURI;\n    }\n\n    function setRoyaltyRecipient(address _newRoyaltyRecipient)\n        public\n        onlyOwner\n    {\n        royaltyRecipient = _newRoyaltyRecipient;\n    }\n\n    function setRoyaltyValue(uint256 _newRoyaltyValue) public onlyOwner {\n        royaltyValue = _newRoyaltyValue;\n    }\n\n    function setVipCost(uint256 _newVipCost) public onlyOwner {\n        vipCost = _newVipCost;\n    }\n\n    function setPremiumCost(uint256 _newPremiumCost) public onlyOwner {\n        premiumCost = _newPremiumCost;\n    }\n\n    function setCategory1Cost(uint256 _newCategory1Cost) public onlyOwner {\n        category1Cost = _newCategory1Cost;\n    }\n\n    function setCategory2Cost(uint256 _newCategory2Cost) public onlyOwner {\n        category2Cost = _newCategory2Cost;\n    }\n\n    function setBaseURI(string memory _newBaseURI) public onlyOwner {\n        baseURI = _newBaseURI;\n    }\n\n    // FUNCTIONS are overrides required by Solidity.\n\n    function _beforeTokenTransfer(\n        address from,\n        address to,\n        uint256 tokenId\n    ) internal override(ERC721, ERC721Enumerable) {\n        super._beforeTokenTransfer(from, to, tokenId);\n    }\n\n    function _burn(uint256 tokenId)\n        internal\n        override(ERC721, ERC721URIStorage)\n        onlyOwner\n    {\n        super._burn(tokenId);\n    }\n\n    function _hash(address account, uint256 tokenId)\n        internal\n        pure\n        returns (bytes32)\n    {\n        return\n            ECDSA.toEthSignedMessageHash(\n                keccak256(abi.encodePacked(tokenId, account))\n            );\n    }\n\n    function _verify(bytes32 digest, bytes memory signature)\n        internal\n        view\n        returns (bool)\n    {\n        return hasRole(MINTER_ROLE, ECDSA.recover(digest, signature));\n    }\n}\n",
  "sourcePath": "/home/alejandro/minter-stadium/contracts/nftWithRoyalties.sol",
  "compiler": {
    "name": "solc",
    "version": "0.8.10+commit.fc410830.Emscripten.clang"
  },
  "schemaVersion": "3.4.3",
  "updatedAt": "2021-12-11T18:48:18.438Z",
  "networkType": "ethereum",
  "devdoc": {
    "kind": "dev",
    "methods": {
      "approve(address,uint256)": {
        "details": "See {IERC721-approve}."
      },
      "balanceOf(address)": {
        "details": "See {IERC721-balanceOf}."
      },
      "getApproved(uint256)": {
        "details": "See {IERC721-getApproved}."
      },
      "getRoleAdmin(bytes32)": {
        "details": "Returns the admin role that controls `role`. See {grantRole} and {revokeRole}. To change a role's admin, use {_setRoleAdmin}."
      },
      "grantRole(bytes32,address)": {
        "details": "Grants `role` to `account`. If `account` had not been already granted `role`, emits a {RoleGranted} event. Requirements: - the caller must have ``role``'s admin role."
      },
      "hasRole(bytes32,address)": {
        "details": "Returns `true` if `account` has been granted `role`."
      },
      "isApprovedForAll(address,address)": {
        "details": "See {IERC721-isApprovedForAll}."
      },
      "name()": {
        "details": "See {IERC721Metadata-name}."
      },
      "owner()": {
        "details": "Returns the address of the current owner."
      },
      "ownerOf(uint256)": {
        "details": "See {IERC721-ownerOf}."
      },
      "redeem(address,uint256,uint256[],uint256,uint256,uint256,uint256,bytes)": {
        "params": {
          "caller": "the recipient of the token"
        }
      },
      "renounceOwnership()": {
        "details": "Leaves the contract without owner. It will not be possible to call `onlyOwner` functions anymore. Can only be called by the current owner. NOTE: Renouncing ownership will leave the contract without an owner, thereby removing any functionality that is only available to the owner."
      },
      "renounceRole(bytes32,address)": {
        "details": "Revokes `role` from the calling account. Roles are often managed via {grantRole} and {revokeRole}: this function's purpose is to provide a mechanism for accounts to lose their privileges if they are compromised (such as when a trusted device is misplaced). If the calling account had been revoked `role`, emits a {RoleRevoked} event. Requirements: - the caller must be `account`."
      },
      "revokeRole(bytes32,address)": {
        "details": "Revokes `role` from `account`. If `account` had been granted `role`, emits a {RoleRevoked} event. Requirements: - the caller must have ``role``'s admin role."
      },
      "royaltyInfo(uint256,uint256)": {
        "params": {
          "_tokenId": "- the NFT asset queried for royalty information",
          "_value": "- the sale price of the NFT asset specified by _tokenId"
        },
        "returns": {
          "receiver": "- address of who should be sent the royalty payment",
          "royaltyAmount": "- the royalty payment amount for value sale price"
        }
      },
      "safeTransferFrom(address,address,uint256)": {
        "details": "See {IERC721-safeTransferFrom}."
      },
      "safeTransferFrom(address,address,uint256,bytes)": {
        "details": "See {IERC721-safeTransferFrom}."
      },
      "setApprovalForAll(address,bool)": {
        "details": "See {IERC721-setApprovalForAll}."
      },
      "supportsInterface(bytes4)": {
        "details": "See {IERC165-supportsInterface}."
      },
      "symbol()": {
        "details": "See {IERC721Metadata-symbol}."
      },
      "tokenByIndex(uint256)": {
        "details": "See {IERC721Enumerable-tokenByIndex}."
      },
      "tokenOfOwnerByIndex(address,uint256)": {
        "details": "See {IERC721Enumerable-tokenOfOwnerByIndex}."
      },
      "totalSupply()": {
        "details": "See {IERC721Enumerable-totalSupply}."
      },
      "transferFrom(address,address,uint256)": {
        "details": "See {IERC721-transferFrom}."
      },
      "transferOwnership(address)": {
        "details": "Transfers ownership of the contract to a new account (`newOwner`). Can only be called by the current owner."
      }
    },
    "version": 1
  },
  "userdoc": {
    "kind": "user",
    "methods": {
      "redeem(address,uint256,uint256[],uint256,uint256,uint256,uint256,bytes)": {
        "notice": "Mint one token to `caller`"
      }
    },
    "version": 1
  }
}