{
  "contractName": "PaymentProcessor",
  "abi": [
    {
      "inputs": [
        {
          "internalType": "address",
          "name": "adminAddress",
          "type": "address"
        },
        {
          "internalType": "address",
          "name": "tokenAddress",
          "type": "address"
        }
      ],
      "stateMutability": "nonpayable",
      "type": "constructor"
    },
    {
      "anonymous": false,
      "inputs": [
        {
          "indexed": true,
          "internalType": "address",
          "name": "previousOwner",
          "type": "address"
        },
        {
          "indexed": true,
          "internalType": "address",
          "name": "newOwner",
          "type": "address"
        }
      ],
      "name": "OwnershipTransferred",
      "type": "event"
    },
    {
      "anonymous": false,
      "inputs": [
        {
          "indexed": false,
          "internalType": "address",
          "name": "payer",
          "type": "address"
        },
        {
          "indexed": false,
          "internalType": "uint256",
          "name": "amount",
          "type": "uint256"
        },
        {
          "indexed": false,
          "internalType": "uint256",
          "name": "paymentId",
          "type": "uint256"
        },
        {
          "indexed": false,
          "internalType": "uint256",
          "name": "date",
          "type": "uint256"
        }
      ],
      "name": "PaymentDone",
      "type": "event"
    },
    {
      "inputs": [],
      "name": "admin",
      "outputs": [
        {
          "internalType": "address",
          "name": "",
          "type": "address"
        }
      ],
      "stateMutability": "view",
      "type": "function",
      "constant": true
    },
    {
      "inputs": [],
      "name": "owner",
      "outputs": [
        {
          "internalType": "address",
          "name": "",
          "type": "address"
        }
      ],
      "stateMutability": "view",
      "type": "function",
      "constant": true
    },
    {
      "inputs": [],
      "name": "renounceOwnership",
      "outputs": [],
      "stateMutability": "nonpayable",
      "type": "function"
    },
    {
      "inputs": [],
      "name": "token",
      "outputs": [
        {
          "internalType": "contract IERC20",
          "name": "",
          "type": "address"
        }
      ],
      "stateMutability": "view",
      "type": "function",
      "constant": true
    },
    {
      "inputs": [
        {
          "internalType": "address",
          "name": "newOwner",
          "type": "address"
        }
      ],
      "name": "transferOwnership",
      "outputs": [],
      "stateMutability": "nonpayable",
      "type": "function"
    },
    {
      "inputs": [
        {
          "internalType": "uint256",
          "name": "amount",
          "type": "uint256"
        },
        {
          "internalType": "uint256",
          "name": "paymentId",
          "type": "uint256"
        }
      ],
      "name": "pay",
      "outputs": [],
      "stateMutability": "nonpayable",
      "type": "function"
    },
    {
      "inputs": [
        {
          "internalType": "address",
          "name": "_newAdmin",
          "type": "address"
        }
      ],
      "name": "setAdmin",
      "outputs": [],
      "stateMutability": "nonpayable",
      "type": "function"
    },
    {
      "inputs": [
        {
          "internalType": "contract IERC20",
          "name": "_newToken",
          "type": "address"
        }
      ],
      "name": "setToken",
      "outputs": [],
      "stateMutability": "nonpayable",
      "type": "function"
    }
  ],
  "bytecode": "0x608060405234801561001057600080fd5b5060405162000d4a38038062000d4a83398181016040528101906100349190610208565b6100506100456100d960201b60201c565b6100e160201b60201c565b81600160006101000a81548173ffffffffffffffffffffffffffffffffffffffff021916908373ffffffffffffffffffffffffffffffffffffffff16021790555080600260006101000a81548173ffffffffffffffffffffffffffffffffffffffff021916908373ffffffffffffffffffffffffffffffffffffffff1602179055505050610248565b600033905090565b60008060009054906101000a900473ffffffffffffffffffffffffffffffffffffffff169050816000806101000a81548173ffffffffffffffffffffffffffffffffffffffff021916908373ffffffffffffffffffffffffffffffffffffffff1602179055508173ffffffffffffffffffffffffffffffffffffffff168173ffffffffffffffffffffffffffffffffffffffff167f8be0079c531659141344cd1fd0a4f28419497f9722a3daafe3b4186f6b6457e060405160405180910390a35050565b600080fd5b600073ffffffffffffffffffffffffffffffffffffffff82169050919050565b60006101d5826101aa565b9050919050565b6101e5816101ca565b81146101f057600080fd5b50565b600081519050610202816101dc565b92915050565b6000806040838503121561021f5761021e6101a5565b5b600061022d858286016101f3565b925050602061023e858286016101f3565b9150509250929050565b610af280620002586000396000f3fe608060405234801561001057600080fd5b50600436106100885760003560e01c8063ef48eee61161005b578063ef48eee6146100ed578063f2fde38b14610109578063f851a44014610125578063fc0c546a1461014357610088565b8063144fa6d71461008d578063704b6c02146100a9578063715018a6146100c55780638da5cb5b146100cf575b600080fd5b6100a760048036038101906100a2919061071d565b610161565b005b6100c360048036038101906100be9190610776565b610221565b005b6100cd6102e1565b005b6100d7610369565b6040516100e491906107b2565b60405180910390f35b61010760048036038101906101029190610803565b610392565b005b610123600480360381019061011e9190610776565b610498565b005b61012d610590565b60405161013a91906107b2565b60405180910390f35b61014b6105b6565b60405161015891906108a2565b60405180910390f35b6101696105dc565b73ffffffffffffffffffffffffffffffffffffffff16610187610369565b73ffffffffffffffffffffffffffffffffffffffff16146101dd576040517f08c379a00000000000000000000000000000000000000000000000000000000081526004016101d49061091a565b60405180910390fd5b80600260006101000a81548173ffffffffffffffffffffffffffffffffffffffff021916908373ffffffffffffffffffffffffffffffffffffffff16021790555050565b6102296105dc565b73ffffffffffffffffffffffffffffffffffffffff16610247610369565b73ffffffffffffffffffffffffffffffffffffffff161461029d576040517f08c379a00000000000000000000000000000000000000000000000000000000081526004016102949061091a565b60405180910390fd5b80600160006101000a81548173ffffffffffffffffffffffffffffffffffffffff021916908373ffffffffffffffffffffffffffffffffffffffff16021790555050565b6102e96105dc565b73ffffffffffffffffffffffffffffffffffffffff16610307610369565b73ffffffffffffffffffffffffffffffffffffffff161461035d576040517f08c379a00000000000000000000000000000000000000000000000000000000081526004016103549061091a565b60405180910390fd5b61036760006105e4565b565b60008060009054906101000a900473ffffffffffffffffffffffffffffffffffffffff16905090565b600260009054906101000a900473ffffffffffffffffffffffffffffffffffffffff1673ffffffffffffffffffffffffffffffffffffffff166323b872dd33600160009054906101000a900473ffffffffffffffffffffffffffffffffffffffff16856040518463ffffffff1660e01b815260040161041393929190610949565b6020604051808303816000875af1158015610432573d6000803e3d6000fd5b505050506040513d601f19601f8201168201806040525081019061045691906109b8565b507f78eaebe37a28490ff43ed0e95bdc47de1587156ac0069b652e1d2d9f42464e983383834260405161048c94939291906109e5565b60405180910390a15050565b6104a06105dc565b73ffffffffffffffffffffffffffffffffffffffff166104be610369565b73ffffffffffffffffffffffffffffffffffffffff1614610514576040517f08c379a000000000000000000000000000000000000000000000000000000000815260040161050b9061091a565b60405180910390fd5b600073ffffffffffffffffffffffffffffffffffffffff168173ffffffffffffffffffffffffffffffffffffffff161415610584576040517f08c379a000000000000000000000000000000000000000000000000000000000815260040161057b90610a9c565b60405180910390fd5b61058d816105e4565b50565b600160009054906101000a900473ffffffffffffffffffffffffffffffffffffffff1681565b600260009054906101000a900473ffffffffffffffffffffffffffffffffffffffff1681565b600033905090565b60008060009054906101000a900473ffffffffffffffffffffffffffffffffffffffff169050816000806101000a81548173ffffffffffffffffffffffffffffffffffffffff021916908373ffffffffffffffffffffffffffffffffffffffff1602179055508173ffffffffffffffffffffffffffffffffffffffff168173ffffffffffffffffffffffffffffffffffffffff167f8be0079c531659141344cd1fd0a4f28419497f9722a3daafe3b4186f6b6457e060405160405180910390a35050565b600080fd5b600073ffffffffffffffffffffffffffffffffffffffff82169050919050565b60006106d8826106ad565b9050919050565b60006106ea826106cd565b9050919050565b6106fa816106df565b811461070557600080fd5b50565b600081359050610717816106f1565b92915050565b600060208284031215610733576107326106a8565b5b600061074184828501610708565b91505092915050565b610753816106cd565b811461075e57600080fd5b50565b6000813590506107708161074a565b92915050565b60006020828403121561078c5761078b6106a8565b5b600061079a84828501610761565b91505092915050565b6107ac816106cd565b82525050565b60006020820190506107c760008301846107a3565b92915050565b6000819050919050565b6107e0816107cd565b81146107eb57600080fd5b50565b6000813590506107fd816107d7565b92915050565b6000806040838503121561081a576108196106a8565b5b6000610828858286016107ee565b9250506020610839858286016107ee565b9150509250929050565b6000819050919050565b600061086861086361085e846106ad565b610843565b6106ad565b9050919050565b600061087a8261084d565b9050919050565b600061088c8261086f565b9050919050565b61089c81610881565b82525050565b60006020820190506108b76000830184610893565b92915050565b600082825260208201905092915050565b7f4f776e61626c653a2063616c6c6572206973206e6f7420746865206f776e6572600082015250565b60006109046020836108bd565b915061090f826108ce565b602082019050919050565b60006020820190508181036000830152610933816108f7565b9050919050565b610943816107cd565b82525050565b600060608201905061095e60008301866107a3565b61096b60208301856107a3565b610978604083018461093a565b949350505050565b60008115159050919050565b61099581610980565b81146109a057600080fd5b50565b6000815190506109b28161098c565b92915050565b6000602082840312156109ce576109cd6106a8565b5b60006109dc848285016109a3565b91505092915050565b60006080820190506109fa60008301876107a3565b610a07602083018661093a565b610a14604083018561093a565b610a21606083018461093a565b95945050505050565b7f4f776e61626c653a206e6577206f776e657220697320746865207a65726f206160008201527f6464726573730000000000000000000000000000000000000000000000000000602082015250565b6000610a866026836108bd565b9150610a9182610a2a565b604082019050919050565b60006020820190508181036000830152610ab581610a79565b905091905056fea2646970667358221220a20a208735723e7b792a902f7cf72378c74c9df9166a05d02682e69bb6919fcf64736f6c634300080a0033",
  "immutableReferences": {},
  "source": "//SPDX-License-Identifier: MIT\n\npragma solidity ^0.8.10;\n\nimport \"@openzeppelin/contracts/token/ERC20/IERC20.sol\";\nimport \"@openzeppelin/contracts/access/Ownable.sol\";\n\ncontract PaymentProcessor is Ownable {\n    address public admin;\n    IERC20 public token;\n\n    event PaymentDone(\n        address payer,\n        uint256 amount,\n        uint256 paymentId,\n        uint256 date\n    );\n\n    constructor(address adminAddress, address tokenAddress) public {\n        admin = adminAddress;\n        token = IERC20(tokenAddress);\n    }\n\n    function pay(uint256 amount, uint256 paymentId) external {\n        token.transferFrom(msg.sender, admin, amount);\n        emit PaymentDone(msg.sender, amount, paymentId, block.timestamp);\n    }\n\n    //admin address who receives payments\n    function setAdmin(address _newAdmin) public onlyOwner {\n        admin = _newAdmin;\n    }\n\n    //token address used for payments\n    function setToken(IERC20 _newToken) public onlyOwner {\n        token = _newToken;\n    }\n}\n",
  "sourcePath": "/home/alejandro/minter-stadium/contracts/PaymentProcessor.sol",
  "compiler": {
    "name": "solc",
    "version": "0.8.10+commit.fc410830.Emscripten.clang"
  },
  "schemaVersion": "3.4.3",
  "updatedAt": "2021-12-11T18:06:28.817Z",
  "networkType": "ethereum",
  "devdoc": {
    "kind": "dev",
    "methods": {
      "owner()": {
        "details": "Returns the address of the current owner."
      },
      "renounceOwnership()": {
        "details": "Leaves the contract without owner. It will not be possible to call `onlyOwner` functions anymore. Can only be called by the current owner. NOTE: Renouncing ownership will leave the contract without an owner, thereby removing any functionality that is only available to the owner."
      },
      "transferOwnership(address)": {
        "details": "Transfers ownership of the contract to a new account (`newOwner`). Can only be called by the current owner."
      }
    },
    "version": 1
  },
  "userdoc": {
    "kind": "user",
    "methods": {},
    "version": 1
  }
}